:020000040800F2
:1000000018470020910100085709000875020008F0
:1000100055090008F7070008110E0008000000004D
:10002000000000000000000000000000A301000824
:10003000F907000800000000FF010008930B00080A
:10004000AB010008AB010008AB010008AB010008E0
:10005000AB010008AB01000819080008750800088A
:10006000A1080008CD080008F9080008AB01000845
:10007000AB010008AB010008AB010008AB010008B0
:10008000AB010008AB010008AB010008AB010008A0
:10009000AB010008AB010008AB010008250900080E
:1000A000AB010008810C0008AB010008AB0100089F
:1000B000AD0C0008D90C0008050D0008AB010008C4
:1000C000AB010008AB010008AB010008AB01000860
:1000D000AB010008310D00087D0D0008C50D0008BA
:1000E00045080008AB010008AB01000800F002F869
:1000F00000F03EF80AA090E8000C82448344AAF184
:100100000107DA4501D100F033F8AFF2090EBAE881
:100110000F0013F0010F18BFFB1A43F0010318473B
:10012000E848000008490000103A24BF78C878C1A8
:10013000FAD8520724BF30C830C144BF04680C60ED
:10014000704700000023002400250026103A28BF35
:1001500078C1FBD8520728BF30C148BF0B60704739
:100160001FB59DE8030000F063FA1FBD10B510BD78
:1001700000F0BAFA1146FFF7F3FF00F037FB00F08A
:10018000D8FA03B4FFF7F2FF03BC00F009FB00004C
:100190000948804709480047FEE7FEE7FEE7FEE71B
:1001A000FEE7FEE7FEE7FEE7FEE7FEE70448054957
:1001B000054A064B704700000D0C0008ED000008D2
:1001C0001841002018470020184300201843002041
:1001D000EFF3108072B6704780F310887047324A90
:1001E0001368012B04D04FF0010313602F4A1060F5
:1001F0002F4A11602F484FF0805101607047EFF394
:10020000108272B62848016891B14FF00001016078
:100210002648016829B1EFF3098121E9F00F006850
:100220000160234909680968B1E8F00F81F3098882
:1002300082F310884EF0040E70471D4908601B4978
:100240004FF00000086018494FF0010008601A489C
:100250001A49D0F8002041EA0201016015484FF028
:100260008051016016480068006880F3088861B614
:1002700062B670471EF0040F0CBFEFF30880EFF377
:10028000098020E9F00F40F804ED1EF0040F0CBFC8
:1002900080F3088880F3098800B502F061FB5DF8FF
:1002A00004EB4EF0040E7047500000204800002080
:1002B0004C00002004ED00E020ED00E00000FFFF16
:1002C00008ED00E070B5064600F096F9056806F105
:1002D0000B0020F00704B4429CBF002070BD2B46E9
:1002E0006A68BAB11068A04210D304F108018842CC
:1002F0003CBF5068586007D35168101941601168BD
:10030000091B016058601460101D70BD13465268CF
:10031000002AE7D12146284600F076F90028DED1F0
:1003200070BD70B50446051F00F066F90068002C2A
:1003300014BF446870BD002C18BFAC423CBF2046BF
:100340006468F8D301680A18AA4218BF456003D14F
:100350002A6805461144016028684119A1421CBF62
:100360006C6070BD6168696021680844286070BD78
:1003700040EA0103024630B59B0710D14FF001342B
:1003800000E008C208C91D1B9D4315EAC41FF8D030
:1003900013F0FF0102F8011B0DD01B0AF8E711F85A
:1003A000013B002B02F8013B05D011F8013B002B6B
:1003B00002F8013BF3D130BD10B5431C02E010F848
:1003C000011B71B18107FAD14FF0013202C88C1ABA
:1003D0008C4314EAC211F9D0C01A0A0603D0C01E19
:1003E00010BDC01A10BD0A0401D0801E10BD090244
:1003F000FCD0401E10BD40EA010370B59B072ED112
:100400004FF00136042A2AD308C810C99D1B9D430A
:10041000121F15EAC61517D0D8B2E1B2401A50EA39
:10042000056110D198B2A1B2401A50EA05410AD133
:1004300023F07F4024F07F41401A50EA052102D189
:10044000180EA0EB146070BDA342DBD018BA21BA1D
:10045000884201D9012070BD4FF0FF3070BD0AB94C
:10046000002070BD10F8013B11F8014B63B1A342AD
:100470000AD1521E08D010F8013B11F8014B1BB1F4
:10048000A34201D1521EEDD1181B70BD421E12F8BD
:10049000013F002BFBD111F8013B002B02F8013B7F
:1004A000F9D1704710B5203AC0F00B80B1E8185070
:1004B000203AA0E81850B1E81850A0E81850BFF44E
:1004C000F5AF5FEA027C24BFB1E81850A0E81850ED
:1004D00044BF18C918C0BDE810405FEA827C24BF41
:1004E00051F8043B40F8043B08BF7047D20728BFCF
:1004F00031F8023B48BF11F8012B28BF20F8023B1E
:1005000048BF00F8012B70474FF000020429C0F0EB
:10051000128010F0030C00F01B80CCF1040CBCF135
:10052000020F18BF00F8012BA8BF20F8022BA1EB87
:100530000C0100F00DB85FEAC17C24BF00F8012B6C
:1005400000F8012B48BF00F8012B70474FF0000264
:1005500000B5134694469646203922BFA0E80C50B9
:10056000A0E80C50B1F12001BFF4F7AF090728BF94
:10057000A0E80C5048BF0CC05DF804EB890028BF10
:1005800040F8042B08BF704748BF20F8022B11F039
:10059000804F18BF00F8012B704710B5044610F0CB
:1005A000030F08BF11F0030F40F015804FF0013E1C
:1005B000121FC0F20E8051F8043BA3EB0E0C2CEA84
:1005C000030C1CEACE1C08BF40F8043BF0D0A1F19C
:1005D000040102F10402521E08DB11F8013B002B5A
:1005E00000F8013BF7D11146FFF78EFF204610BD02
:1005F000704770477047000000487047BC400020BB
:10060000704770477047704738B504460A46002067
:100610006946AFF30080002808BF38BD0246009944
:10062000204600F03FF8012038BD012000F054B80A
:10063000F8B5AFF30080054600200C46102000BF3F
:100640000646A819A0420DD9324669460020AFF3EC
:100650000080070008BF00F03FF80098A04218BFD4
:100660000546C419FFF7C8FF05600746F01D20F0D6
:1006700007004619284600F00AF8B44208BFF8BD42
:10068000A21B31463868BDE8F84000F00BB80021E5
:100690000160C0E9011070471020704700487047A2
:1006A000B4400020034640688C46002818BF8842AA
:1006B0003CBF03464068F8D318681844884207D006
:1006C0000CF1030020F00700001D411A521A0146E8
:1006D000081D0A60FFF725BE10B500F039F8BDE827
:1006E000104000F02FB870477546FFF7D7FFAE46B1
:1006F00005006946534620F00700854618B020B52E
:10070000FFF754FDBDE820404FF000064FF0000712
:100710004FF000084FF0000B21F00701AC46ACE8A9
:10072000C009ACE8C009ACE8C009ACE8C0098D4616
:10073000704710B50446AFF300802046BDE8104076
:10074000FFF71FBD002801D000F02AB87047000055
:1007500010B5012805D0002103A000F027F80120E2
:1007600010BD09A1F8E7000053494752544D454DCB
:100770003A204F7574206F662068656170206D6542
:100780006D6F7279000000003A2048656170206D3D
:10079000656D6F727920636F727275707465640035
:1007A00001491820ABBEFEE72600020070B50546E1
:1007B0000C460A2000E06D1C00F011F835B12878D5
:1007C0000028F8D102E0641C00F009F814B1207888
:1007D0000028F8D1BDE870400A20AFF3008008B5CA
:1007E00069468DF800000320ABBE08BD10B503F0CC
:1007F0004FFA002010BDFEE770470EB500200090B4
:1008000001900290052304224FF4E131012003F00E
:1008100081FA00200EBD000010B502F0BBF90848B7
:100820000168C90708D0064914390968C90703D007
:10083000016841F001010160BDE8104002F0B8B963
:100840001404014010B502F0A5F90948016811F43B
:100850007C4F09D006491439096811F47C4F03D044
:10086000016841F47C410160BDE8104002F0A0B98C
:100870001404014010B502F08DF908480168890799
:1008800008D5064914390968890703D5016841F07C
:1008900002010160BDE8104002F08AB91404014071
:1008A00010B502F077F908480168490708D50649EC
:1008B00014390968490703D5016841F00401016052
:1008C000BDE8104002F074B91404014010B502F004
:1008D00061F908480168090708D50649143909680B
:1008E000090703D5016841F008010160BDE8104027
:1008F00002F05EB91404014010B502F04BF908484B
:100900000168C90608D5064914390968C90603D51E
:10091000016841F010010160BDE8104002F048B9E3
:100920001404014010B502F035F90948016811F4CA
:10093000787F09D006491439096811F4787F03D00B
:10094000016841F478710160BDE8104002F030B9EF
:1009500014040140FEE7FEE72DE9F04F89B08B4615
:10096000DDE912A906469846174624216846FFF796
:10097000EDFD6C460820FFF7A5FC050017D02E7092
:100980006F70C5F804908DF800708DF80180E01C40
:100990008DF802A0594600F0D7F86B462322314665
:1009A000122000F0A4F8284609B0BDE8F08F00201E
:1009B000FAE770B588B00E46054620216846FFF775
:1009C000C5FD8420FFF77EFC04000DD02570314664
:1009D000684600F0B9F86B4620222946102000F046
:1009E00086F8204608B070BD0020FBE7F0B589B05E
:1009F0000F4604461D46164624216846FFF7A6FD0D
:100A000061786846202902D3032009B0F0BD04EBC9
:100A10008102491C617055608DF800603946401CA8
:100A200000F092F821786B462122202000F05FF838
:100A30000020EAE72DE9F04389B0894605461E46C5
:100A4000904624216846FFF781FD6F462420FFF77A
:100A500039FC040013D0257066708DF80080B81C36
:100A60008DF80160494600F06FF86B462222294656
:100A7000112000F03CF8204609B0BDE8F0830020CA
:100A8000FAE770B588B00E46044615462021684640
:100A9000FFF75CFDA078082802D3032008B070BDE2
:100AA00004EB8001401CA0704D603146684600F0A8
:100AB0004BF821786B462022212000F018F8002006
:100AC000ECE708B501208DF8000002466B46FF21D7
:100AD000A12000F00CF808BD08B501208DF8000039
:100AE00002466B46FF21A02000F001F808BD3EB58C
:100AF0007A248DF800408DF801008DF80210ADF8D1
:100B000004206846029300F001F83EBD70B504462B
:100B10000178002003F0E4F9607800F023F8A07871
:100B200000F020F8207900F01DF8A088000A00F0FD
:100B300019F8002504E0A068405D00F013F86D1C72
:100B4000A088A842F7D870BD002206E0521CD2B29D
:100B5000491C00F8013B202A02D20B78002BF5D16A
:100B60002030704710B57A2807D07B280BD001467B
:100B7000BDE81040002003F0B3B97B21002003F052
:100B8000AFF90021F4E77B21002003F0A9F901214E
:100B9000EEE710B501F0FEFF02F02EFEBDE81040BA
:100BA00002F006B8144910B54868144A10F00C0356
:100BB000134803D0042B01D0082B09D002604968E8
:100BC000104AC1F30311515C0268CA40026010BDB3
:100BD0004A684B6802F470124FF0020413F4803F2D
:100BE00004EB924202D04B689B0301D5064B00E018
:100BF000024B5A43E2E700000010024000127A0064
:100C0000000000200245000800093D001948016865
:100C100041F48031016001688903FCD5416841F4E9
:100C200080614160416841F480314160416841F434
:100C3000E011416010490A6842F032020A6001681E
:100C400041F08071016001688901FCD5416841F083
:100C500002014160416801F00F010A29FAD181695E
:100C600041F0010181610548416841F00071416036
:100C700070470000001002400020024000000140C8
:100C800010B501F087FF07480168C90706D0016861
:100C900021F00101016004490120C870BDE8104045
:100CA00001F086BF102C01400400002010B501F0B7
:100CB00071FF4FF080400169C90706D0016921F03A
:100CC00001010161034901200871BDE8104001F0F4
:100CD0006FBF00000400002010B501F05BFF074863
:100CE0000168C90706D0016821F0010101600449CB
:100CF00001204871BDE8104001F05ABF10040040C7
:100D00000400002010B501F045FF07480168C9073D
:100D100006D0016821F001010160044901208871B9
:100D2000BDE8104001F044BF10080040040000205E
:100D300010B501F02FFF0E48016889060BD50C494C
:100D40000C310968890606D50A4A0121117001682B
:100D500021F0200101600648001D0068C1B206486C
:100D6000006802F0CBF8BDE8104001F021BF0000A0
:100D70000038014004000020E400002010B501F01C
:100D800009FF0D480168890612D50B490C31096825
:100D900089060DD5094A01215170016821F0200111
:100DA0000160001D0068C1B20548006802F0A6F8A5
:100DB000BDE8104001F0FCBE0044004004000020EB
:100DC000E400002010B501F0E5FE0E480168890638
:100DD0000BD50C490C310968890606D50A4A012150
:100DE0009170016821F0200101600648001D006833
:100DF000C1B20648006802F081F8BDE8104001F079
:100E0000D7BE00000048004004000020E40000209D
:100E1000FEE70000002806D00E4910F0FF0F03D0B7
:100E2000C0B2085C401C704710F47F4F04D0C0F380
:100E30000720085C0930704710F47F0F04D0C0F31E
:100E40000740085C1130704701EB106000781930E2
:100E500070470000124500082DE9F04F89B0924616
:100E60008B460646002400E0641C305D202803D039
:100E7000092801D05C45F7D34FF0FF387CB31948FF
:100E800004F10609184F056811E0062217A1286829
:100E9000FFF7B1FA50B9286822463146801DFFF7A6
:100EA000AAFA18B9296811F8090020B10C35386878
:100EB0008542EAD314E0AC688CB120216846FFF784
:100EC00045FB6A465946304601F0B0FA38B16946EA
:100ED000A047CAF80000002009B0BDE8F08FFFE786
:100EE0004046F9E72C000020300000205F5F636D72
:100EF000645F00002DE9FC411F460446DDE908312E
:100F0000DDE90A65143040600060C4E90827C4E9DF
:100F10000A310A46232118461C3402F085F8D4E928
:100F200003014218D4E90101104B121F01F016FE13
:100F300044F81A0B002004F801690D4A04F8036B09
:100F4000E4E8020544F8105901C404F83C0B01C45C
:100F500044F87409009023460190194604F14400B6
:100F600002F0DEFC0020BDE8FC8100009D35000899
:100F70006B37000810B5029C24F001044472C0E9EC
:100F800007120021C0E9093114304060006010BD33
:100F9000143001F094BE70B50546FFF719F9296FBA
:100FA000044609B1284688472046BDE87040FFF74F
:100FB00013B9000010B51BA001F03AFE1C4C2178BB
:100FC0001CA001F035FE2078C00702D01FA001F060
:100FD0002FFE2078800702D51FA001F029FE20787F
:100FE000400702D51FA001F023FE2078000702D59C
:100FF00020A001F01DFE2078C00602D520A001F03F
:1010000017FE2078000607D509480F300168BDE8B3
:1010100010401DA001F00CBEBDE810401EA001F064
:1010200007BE0000627573206661756C743A0A0031
:1010300029ED00E05343425F434653525F4246531B
:10104000523A30782530325820000000494255533A
:10105000455252200000000050524543495345522A
:1010600052200000494D50524543495345525220A9
:1010700000000000554E53544B45525220000000D2
:1010800053544B45525220005343422D3E42464159
:10109000523A253038580A000A00000010B500F016
:1010A000B3FB002010BD10B500F006FD002010BD00
:1010B000104810B5416991F82110890703D40E49F1
:1010C0000020087013E0016921B180220A48FFF76F
:1010D00064FA0CE001F0A8F908B108A100E009A148
:1010E0000548FFF745F909A10348FFF7CFF9024882
:1010F00010BD00002C000020180100206D73682036
:101100000000000066696E73682000003E00000069
:101110000349496911F8212F60F341020A707047B1
:101120002C000020014AC2E9000170472C00002079
:101130007CB516491648FFF7F5FF7821012001F02C
:10114000EFFA144C6061D0B10A211520CDE90001FD
:101150004FF480630022104910A002F0FAF905460E
:1011600000231A460FA1606902F086F80120FFF7FC
:10117000CFFF15B1284602F0C1FA00207CBD0BA0BC
:1011800001F056FD4FF0FF307CBD0000084A00081A
:10119000304900082C000020C511000874736865F0
:1011A0006C6C000073687278000000006E6F206D38
:1011B000656D6F727920666F72207368656C6C0A5A
:1011C00000000000984D686910F8211F41F00101EE
:1011D0000170FFF76DFF01F02BFD002601F098FB79
:1011E0000400FBD41B2C07D0686990F8201001295B
:1011F00007D002290ED017E06969012081F820008C
:10120000ECE75B2C02D080F820600DE0022180F832
:101210002010E3E780F82060412CDFD0422CDDD0A5
:10122000442C38D0432C43D0002CD7D0FF2CD5D021
:10123000092C4ED07F2C75D0082C73D00D2C70D07B
:101240000A2CFCD0B0F87210502901D3A0F87260BB
:10125000B0F87430B0F872108B427DD2CA1A00F127
:10126000220123301944184401F0C4FE6869B0F823
:10127000741022300C54686990F82110C90706D008
:10128000B0F874102230014468A001F0D1FC686904
:10129000B0F87440A5E0B0F8740000289ED064A0B7
:1012A00001F0C6FC686930F8741F491E018095E79B
:1012B000B0F87410B0F8722091428FD22230095CDD
:1012C0005CA001F0B5FC696931F8740F401C08801E
:1012D00084E7002403E056A001F0AAFC641C6869BE
:1012E000B0F87400A042F6DC6C6953A0223401F01F
:1012F0009FFC01F099F8012802D1204600F0D0FFB0
:10130000FFF7D6FE014622464CA001F091FC686929
:101310002230FFF751F8696921F8720F48805DE7C4
:1013200000E03DE0B0F87420002AC0D0B0F87210A0
:10133000521E491E89B293B2A0F87210A0F8743000
:10134000994224D9CA1A00F12301223019441844C1
:1013500001F050FE686900E049E0B0F872102230F8
:101360000E546869B0F874102230014435A001F0C1
:101370005FFC6869B0F8744003E02DA001F058FCF0
:10138000641C6869B0F87200A04290DBF5E72FA0FA
:1013900001F04EFC6869B0F8721022300E541DE75F
:1013A00001F042F801280DD1686990F82100C007CA
:1013B00002D021A001F03CFC6869B0F87210223024
:1013C00000F0C4FFFFF774FE01F032FC68695021A1
:1013D0002230FFF799F8686922E015A001F028FC97
:1013E000641C6869B0F87200A042F6DC0AE02230A2
:1013F0000C54686990F82100C00703D021460DA065
:1014000001F016FC6869B0F87210491C89B2A0F8A6
:101410007210B0F87420521CA0F874205029BED36A
:1014200020F8726F4680D9E62C000020257300005A
:1014300008000000256300000A00000025732573E2
:101440000000000008257320200800000820080084
:101450002DE9F04F9646374ADDF824B00509966924
:1014600000F00F0AAF1C0124BC402643966102071E
:10147000960E4FF00F0C0CFA06F8A6F1200703FAAF
:1014800006F90CFA07FCBB402B4A040952F8244029
:1014900011B1012918D03CE0BAF1080F0AD2216835
:1014A00021EA0801216052F825100B6843EA09037C
:1014B0000B602EE0616821EA0C01616052F8251092
:1014C0004C6823434B6024E0BAF1080F11D2216825
:1014D00021EA0801216052F825100B6843EA09034C
:1014E0000B6052F825100C680BFA06F31C430C60D5
:1014F0000FE0616821EA0C01616052F825104C6828
:1015000023434B6052F825300BFA07F15C68214306
:10151000596052F8251000F00F0301209840CA6866
:10152000BEF1000F01D0024300E08243CA60BDE873
:10153000F08F0000001002400C00002010B5124C8B
:101540002068800702D511A001F072FB20684000DE
:1015500011D50D48C01E007808B1FFF72BFD0A48D1
:10156000001F007808B100F02FFE0748801E008899
:1015700008B102F0C1FC2068002804DABDE8104080
:1015800008A001F055BB10BD2CED00E06661696C50
:10159000656420766563746F722066657463680A9B
:1015A000000000006465627567206576656E740AE8
:1015B0000000000010B502A001F03AFB002010BDB1
:1015C00048656C6C6F2052542D54687265616421BB
:1015D0000A00000070B50CA001F02AFB0F48104D66
:1015E00004680BE002220FA12068FEF704FF20B17F
:1015F000D4E900120CA001F01BFB0C3428688442D3
:10160000F0D3002070BD00002D2D46756E63746907
:101610006F6E204C6973743A0A0000002C000020A1
:10162000300000205F5F0000252D313673202D2D06
:101630002025730A000000002DE9F04104461E46F3
:1016400017460D46084601F05DFD001D206025721D
:1016500000206760C4E90360BDE8F0812DE9F04136
:101660000D4600212961E96891B1297A81B12E687E
:1016700088B10446FEF7ACFD0146A4F10C002A7ABD
:10168000007A20F08000904209D00846FEF7A4FDC1
:101690000020BDE8F0813446FEF79AFD01466868F7
:1016A00000272468B44201D1002404E010C0EA6895
:1016B0007F1CBA42F5D10846FEF78EFD20462F6109
:1016C000E7E700002DE9F04196B000262FA408239B
:1016D0000CAA052106A8FFF7AFFF082080460146A7
:1016E00022462CA001F0A4FA404600F035FF32A0BB
:1016F00001F09EFA06A93046FFF7B0FF0646002526
:101700003BE00CA850F825400C3CFEF761FD01467B
:10171000207A9DF8202020F080009042084602D0D8
:10172000FEF75AFD28E0FEF757FD606904F1140743
:10173000B842384613D001F0A7FA228C618C009190
:10174000CDE9012023460822414622A001F070FA8B
:10175000384602F0B3FA25A001F06AFA0CE001F075
:1017600093FA218C628CCDE9002102902346082255
:1017700041461FA001F05CFA6D1C0A98A842C0DC2B
:10178000002EB7D116B00020BDE8F0816D61696C04
:10179000626F7800252D2A2E7320656E7472792071
:1017A00073697A652073757370656E6420746872EE
:1017B0006561640A00000000202D2D2D2D20202DB4
:1017C0002D2D2D202D2D2D2D2D2D2D2D2D2D2D2D56
:1017D0002D2D0A00252D2A2E2A7320253034642031
:1017E00020253034642025643A0000000A000000FF
:1017F000252D2A2E2A7320253034642020253034CC
:10180000642025640A00000010B5074C07A0E168B9
:1018100001F00EFA0AA0216901F00AFA6169BDE837
:1018200010400CA001F004BA5C000020746F7461D9
:101830006C206D656D6F72793A2025640A00000096
:1018400075736564206D656D6F7279203A2025642B
:101850000A0000006D6178696D756D20616C6C6FB8
:101860006361746564206D656D6F72793A202564DB
:101870000A0000002DE9F04194B000262CA40823B2
:101880000BAA062105A8FFF7D7FE082080460146CF
:1018900022462AA001F0CCF9404600F05DFE2EA0C1
:1018A00001F0C6F905A93046FFF7D8FE0646002527
:1018B00035E00BA850F825400C3CFEF789FC217A56
:1018C0009DF81C2021F08001914202D0FEF784FC9B
:1018D00024E0FEF781FC606904F11407B842384641
:1018E00011D001F0D1F9A18CCDE9001023460822D6
:1018F00041461FA001F09CF9384602F0DFF921A013
:1019000001F096F90AE001F0BFF9A18CCDE90010D1
:101910002346082241461CA001F08AF96D1C099853
:10192000A842C6DC002EBDD114B00020BDE8F08175
:101930006D7367717565756500000000252D2A2E91
:101940007320656E7472792073757370656E642090
:101950007468726561640A00202D2D2D2D20202DC4
:101960002D2D2D2D2D2D2D2D2D2D2D2D2D0A000024
:10197000252D2A2E2A732025303464202025643A10
:10198000000000000A000000252D2A2E2A732025C1
:10199000303464202025640A000000002DE9F04165
:1019A00094B000262CA408230BAA022105A8FFF757
:1019B00043FE08208046014622462AA001F038F95D
:1019C000404600F0C9FD2EA001F032F905A93046CD
:1019D000FFF744FE0646002535E00BA850F82540E9
:1019E0000C3CFEF7F5FB217A9DF81C2021F08001CC
:1019F000914202D0FEF7F0FB24E0FEF7EDFB6069B8
:101A000004F11407B842384611D001F03DF9A18B1A
:101A1000CDE900102346082241461FA001F008F935
:101A2000384602F04BF915A001F002F90AE001F086
:101A30002BF9A18BCDE900102346082241461AA0BC
:101A400001F0F6F86D1C0998A842C6DC002EBDD145
:101A500014B00020BDE8F08173656D6170686F722D
:101A600065000000252D2A2E732076202020737516
:101A70007370656E64207468726561640A000000AA
:101A8000202D2D2D202D2D2D2D2D2D2D2D2D2D2DA0
:101A90002D2D2D0A00000000252D2A2E2A73202529
:101AA0003033642025643A00252D2A2E2A73202500
:101AB0003033642025640A002DE9F041B4B00026DB
:101AC0003CA408232CAA012126A8FFF7B5FD082075
:101AD000804601462246394801F0AAF8404600F007
:101AE0003BFD37A001F0A4F826A93046FFF7B6FD6C
:101AF0000646002554E02CA850F825400C3CFEF783
:101B000067FB0746207A9DF8A01020F080008842ED
:101B100003D03846FEF760FB41E07822214607A853
:101B2000FEF7C0FC3846FEF757FB94F835000090EE
:101B300023460822414632A001F07AF894F8340096
:101B400000F00F00012807D0022807D040B1042878
:101B500008D0032808D00AE02CA006E02EA004E05C
:101B600030A002E032A000E034A001F061F8A06AE9
:101B7000014600E0401C0278232AFBD0E26A401AAA
:101B8000101A64235843B0FBF2F3276B206CCDE9A5
:101B90000007E069081A81182BA001F049F86D1CB4
:101BA0002A98A842A7DC002E9ED134B00020BDE8C0
:101BB000F0810000746872656164000034460008BA
:101BC000202D2D2D20202D2D2D2D2D2D2D202D2D79
:101BD0002D2D2D2D2D2D2D2D202D2D2D2D2D2D2D42
:101BE0002D2D2D20202D2D2D2D2D2D20202D2D2D59
:101BF0002D2D2D2D2D2D2D202D2D2D0A00000000F9
:101C0000252D2A2E2A732025336420002072656139
:101C100064792020000000002073757370656E6485
:101C20000000000020696E69742020200000000080
:101C300020636C6F73652020000000002072756EB9
:101C40006E696E67000000002030782530387820FB
:101C50003078253038782020202025303264252522
:101C600020202030782530387820253033640A0051
:101C7000F0B593B0002626A408230BAA0A2104A8D5
:101C8000FFF7DAFC08272246394623A000F0D0FFF0
:101C9000384600F061FC2AA000F0CAFF04A93046D3
:101CA000FFF7DCFC0646002524E00BA850F8254091
:101CB0000C3CFEF78DFA217A9DF8182021F0800166
:101CC000914202D0FEF788FA13E0FEF785FAD4E9D4
:101CD0000901CDE9000123460822394621A000F080
:101CE000A7FF607AC00701D024A000E026A000F082
:101CF0009FFF6D1C0898A842D7DC002ECED101F0C2
:101D000075FD014624A000F093FF13B00020F0BD44
:101D100074696D6572000000252D2A2E73202070D5
:101D20006572696F64696320202074696D656F75E1
:101D30007420202020202020666C61670A000000AB
:101D4000202D2D2D2D2D2D2D2D2D2D202D2D2D2DDD
:101D50002D2D2D2D2D2D202D2D2D2D2D2D2D2D2DC0
:101D60002D2D0A00252D2A2E2A7320307825303873
:101D7000782030782530387820000000616374695D
:101D800076617465640A00006465616374697661F4
:101D90007465640A0000000063757272656E7420D9
:101DA0007469636B3A3078253038780A0000000097
:101DB0000EB5002000900190022302464FF4E1315D
:101DC000029001F0A7FFFEF787FE00231A4693A1B9
:101DD0004520FEF72FFE0446944A95A1FEF751FEDA
:101DE000924D2046AA1C95A1FEF74BFE20462A1DC7
:101DF00095A1FEF746FE2046AA1D96A1FEF741FEDC
:101E0000204605F1080296A1FEF73BFE204605F1AB
:101E10000A0296A1FEF735FE204605F10C0296A1B6
:101E2000FEF72FFE204605F10E0296A1FEF729FED1
:101E300001231A4696A14620FEF7FCFD044605F153
:101E400010027BA1FEF71DFE204605F112027BA1C8
:101E5000FEF717FE204605F114027BA1FEF711FEE6
:101E6000204605F116027BA1FEF70BFE204605F188
:101E700018027BA1FEF705FE204605F11A027BA1A0
:101E8000FEF7FFFD204605F11C027BA1FEF7F9FDE0
:101E9000204605F11E027BA1FEF7F3FD022301227D
:101EA0007FA14720FEF7C6FD044605F1200260A190
:101EB000FEF7E7FD204605F1220260A1FEF7E1FDF5
:101EC000204605F1240260A1FEF7DBFD204605F166
:101ED000260260A1FEF7D5FD204605F1280260A18B
:101EE000FEF7CFFD204605F12A0260A1FEF7C9FDED
:101EF000204605F12C0260A1FEF7C3FD204605F146
:101F00002E0260A1FEF7BDFDBC247823012268A14A
:101F10003520CDE90045FEF71FFD7823002267A19B
:101F20003620CDE90045FEF717FD67A12120FEF719
:101F300040FD04462B46002266A1FEF757FD2B46C6
:101F4000022267A12046FEF751FD2B46022267A11F
:101F50002046FEF74BFD2B46022267A12046FEF7E6
:101F600045FD2B46022267A12046FEF73FFD2B468A
:101F7000022267A12046FEF739FD2B46022267A107
:101F80002046FEF733FD2B46022267A12046FEF7CE
:101F90002DFD2B46022267A12046FEF727FD2B468A
:101FA000022267A12046FEF721FD2B46022267A1EF
:101FB0002046FEF71BFD2B46022267A12046FEF7B6
:101FC00015FD2B46022267A12046FEF70FFD2B468A
:101FD000022267A12046FEF709FD2B46022267A1D7
:101FE0002046FEF703FD2B46022267A12046FEF79E
:101FF000FDFC2B46022267A12046FEF7F7FC2B468C
:10200000022267A12046FEF7F1FC2B46022267A1BF
:102010002046FEF7EBFCFEF754FDFEE754657374B3
:1020200057617665666F726D31000000E800002030
:102030004368616E6E656C73310000004368616EC9
:102040006E656C73320000004368616E6E656C7380
:10205000330000004368616E6E656C7334000000ED
:102060004368616E6E656C73350000004368616E95
:102070006E656C73360000004368616E6E656C734C
:10208000370000004368616E6E656C7338000000B5
:102090005465737457617665666F726D3200000027
:1020A0005465737457617665666F726D3300000016
:1020B00054657374496D61676531000054657374CC
:1020C000496D6167653200005465737450617261D7
:1020D0006D00000054657374506172616D310000D1
:1020E00054657374506172616D320000546573748D
:1020F000506172616D330000546573745061726198
:102100006D34000054657374506172616D35000068
:1021100054657374506172616D3700005465737457
:10212000506172616D380000546573745061726162
:102130006D39000054657374506172616D31300007
:1021400054657374506172616D31310054657374FC
:10215000506172616D313200546573745061726107
:102160006D31330054657374506172616D313400A8
:1021700054657374506172616D31350054657374C8
:10218000506172616D3136005465737450617261D3
:102190006D31370054657374506172616D31380070
:1021A00054657374506172616D3139005465737494
:1021B000506172616D32300010B500F0CDFABDE8AB
:1021C0001040FFF7F5BD000010B518A000F030FD7D
:1021D0001B4C21781BA000F02BFD2078C00702D0FB
:1021E0001EA000F025FD2078800702D51EA000F07B
:1021F0001FFD2078000702D51EA000F019FD2078F1
:10220000C00602D51EA000F013FD2078000607D5F9
:102210000B480C300168BDE810401CA000F008BD60
:10222000BDE810401D4800F003BD00006D656D2045
:102230006D616E616765206661756C743A0A0000B5
:1022400028ED00E05343425F434653525F4D4653EF
:10225000523A30782530325820000000494143433B
:1022600056494F4C200000004441434356494F4CCF
:10227000200000004D554E53544B45525220000053
:102280004D53544B45525220000000005343422D01
:102290003E4D4D41523A253038580A00683F0008FB
:1022A0002DE9F0478046002500782C4618B12248D9
:1022B000224F066831E0BDE8F0470021084600F0F3
:1022C00077B806221EA13068FEF795F820BB30686B
:1022D00000F106094046FEF76FF8024649464046BF
:1022E000FEF789F8C0B925B94C464846FEF764F8B0
:1022F00005464946204601E0401C491C02781AB1B7
:102300000B780BB19A42F7D0001BA84200DA0546C1
:1023100049460DA000F08CFC0C3638688642D0D3BC
:10232000002C06D02A4621464046BDE8F04701F081
:1023300071B8BDE8F08700002C00002030000020BC
:102340005F5F636D645F000025730A0038B5044663
:1023500001E0491E641C59B120782028F9D00928D1
:10236000F7D06A462046FEF777FD18B1204604E014
:10237000002038BD009838BD401C0178202901D0CC
:102380000029F9D100210170214603A000F050FC82
:102390004FF0FF3038BD000025733A20636F6D6D3C
:1023A000616E64206E6F7420666F756E642E0A0015
:1023B00070B50EA000F03CFC1348144D04680CE00E
:1023C000062213A12068FEF716F828B9D4E90012F6
:1023D00011A0891D00F02CFC0C3428688442EFD336
:1023E00010A000F025FC002070BD000052542D54B8
:1023F0006872656164207368656C6C20636F6D6DD5
:10240000616E64733A0A00002C0000203000002046
:102410005F5F636D645F0000252D313673202D20D2
:1024200025730A000A0000000120704770B50023E0
:1024300015461C461A464BE000F8012B5B1C06783B
:10244000202E01D0092E01D18B42F5D3082C11D3B7
:1024500021A000F0EDFB002606E000BF55F8261095
:1024600025A000F0E5FB761CA642F7D321A000F0E2
:10247000DFFB2FE08B422DD2F6B2222E03D045F89F
:102480002400641C1BE0401C45F824005B1C641CF9
:1024900008E05C2E04D14678222E01D1401C5B1C42
:1024A000401C5B1C0678222E01D08B42F1D38B425C
:1024B00010D200F8012B5B1C0AE0401C5B1C067864
:1024C000202E03D0092E01D08B42F6D38B4201D2AD
:1024D0008B42B4D3204670BD546F6F206D616E790E
:1024E00020617267732021205765206F6E6C792000
:1024F0005573653A0A0000002573200007218143C7
:102500000A02054908684FF6FF031840034B1843B9
:1025100010430860704700000CED00E00000FA0571
:10252000830001F003001843510930B5890001F11F
:10253000E021D1F8003102F01F050124AC40234313
:10254000C1F8003102F1E02292F8001441EA0010D3
:1025500082F8000430BD000010B5044602E003A07C
:1025600000F066FB641EFAD210BD00002D000000D2
:1025700030B5134943680A68134402F108049842CD
:102580000DD05D885DB94D68AB4208D08D689D4225
:1025900000D188605D6845605B68851A1D5183685D
:1025A000134483420BD05D88002D08D18D6885428D
:1025B00000D18B60416859604068991A015130BD63
:1025C0005C0000202DE9F04F85B09946DDE90EA5AD
:1025D000109CAB46630602D5DFF814C103E0DFF8B8
:1025E00010C1ACF1110CE30601D524F00104E3079E
:1025F00001D0302300E0202300260493A3070BD54D
:10260000002A02DA2D26524206E0630701D52B2666
:1026100002E0230700D520260023EE4622B930220F
:102620008DF8002001230CE0B9F10A0F14D002F05C
:102630000F0812091CF808800EF803805B1C002AA2
:10264000F2D1AB4200DD1D46AAEB050214F0110FDA
:102650004FF0200708D015E00A27B2FBF7F807FB78
:102660001828B2FBF7F2E5E73EB1002A05DD521E5D
:1026700003E0884200D20770401CB2F1000CA2F1C6
:102680000102F6DC26B1884200D20670401C521EC0
:10269000E40605D508E0884201D2049C0470401C81
:1026A000141EA2F10102F6DC30242E466D1E9E425D
:1026B0000ADD884200D20470401CF6E7884201D24D
:1026C000E55C0570401C00E074461D1EA3F101038B
:1026D00007DDBBF1000FF1D103E0884200D20770A3
:1026E000401C131EA2F10102F7DC05B0BDE8F08F1B
:1026F000234600081CB514210A20CDE900014FF43F
:1027000000730022034904A000F023FFBDE81C4031
:1027100000F0F4BFB92100086D61696E000000008F
:1027200070B54843044600F0D3FA050003D02246B2
:10273000002100F079FC284670BD000070B5044C03
:10274000044D02E020688047241DAC42FAD370BDDE
:102750001C4900082449000870B5044C044D02E0EF
:1027600020688047241DAC42FAD370BD244900087C
:102770002C49000810B5FDF72BFD044A5188491C6F
:102780005180BDE81040FDF727BD0000C4000020C7
:1027900010B5FDF71DFD0B4C6188491E09B2618023
:1027A00000290ADC00216180FDF716FD6068002821
:1027B00007D0BDE8104000F0E7BCBDE81040FDF7D1
:1027C0000BBD10BDC400002070B5002833D01A4DD9
:1027D000296888422FD3696888422CD2A0F10C0462
:1027E0004FF0FF31154800F07DFD60884FF4F5563D
:1027F00010B12088B04208D011A000F019FA238847
:102800006288214615A000F013FA0020608026801F
:10281000A868844200D2AC6029686068611A401AD6
:102820002969081A28612046FFF7A2FEBDE870401A
:10283000024800F033BD70BD5C000020940300200E
:10284000746F206672656520612062616420646136
:10285000746120626C6F636B3A0A00006D656D3ABB
:10286000203078253038782C207573656420666CAC
:1028700061673A2025642C206D6167696320636F6E
:1028800064653A203078253034780A000048704773
:10289000B404002000487047B440002010B5FEF793
:1028A00081F915484FF47A710068B0FBF1F0401ED1
:1028B000B0F1807F0AD24FF0E02148610F4AF0204A
:1028C00082F8140D00208861072008610220FFF7BC
:1028D00015FEFFF733FFFFF7DDFF0446FFF7D6FFD6
:1028E000214600F0ABFD00220A2105A000F068FAA5
:1028F0000649086010BD0000000000200FE000E065
:102900005368656C6C5F525800000000E4000020C2
:1029100008B505484FF0FF326946006800F074FAC8
:102920000098C0B208BD0000E40000202DE9F0418D
:10293000064600240D2700F065FD05460BE0305DDE
:102940000A2803D13946012001F0CAFA315D01207D
:1029500001F0C6FA641CAC42F1D3BDE8F08100007E
:1029600070B50546041D2D48016819B128468847F1
:10297000002851D02AA0E16B00F05AF92CA0216A5E
:1029800000F056F92EA0616A00F052F930A0A16A59
:1029900000F04EF932A0E16A00F04AF934A0216853
:1029A00000F046F936A0616800F042F938A0A1684D
:1029B00000F03EF93AA0E16800F03AF93CA0216944
:1029C00000F036F93EA0616900F032F940A0A1693B
:1029D00000F02EF942A0E16900F02AF944A0216B31
:1029E00000F026F946A0616B00F022F948A0A16B27
:1029F00000F01EF92878400708D500F079FE01465E
:102A000047A000F015F9FFF757F802E04CA000F0DE
:102A10000FF9FEF793FDFEE770BD000044000020B3
:102A20007073723A203078253038780A0000000040
:102A30007230303A203078253038780A00000000B3
:102A40007230313A203078253038780A00000000A2
:102A50007230323A203078253038780A0000000091
:102A60007230333A203078253038780A0000000080
:102A70007230343A203078253038780A000000006F
:102A80007230353A203078253038780A000000005E
:102A90007230363A203078253038780A000000004D
:102AA0007230373A203078253038780A000000003C
:102AB0007230383A203078253038780A000000002B
:102AC0007230393A203078253038780A000000001A
:102AD0007231303A203078253038780A0000000012
:102AE0007231313A203078253038780A0000000001
:102AF0007231323A203078253038780A00000000F0
:102B0000206C723A203078253038780A00000000B6
:102B10002070633A203078253038780A00000000B1
:102B200068617264206661756C74206F6E207468D1
:102B3000726561643A2025730D0A0D0A00000000D9
:102B400068617264206661756C74206F6E206861C4
:102B50006E646C65720D0A0D0A00000070B50446C3
:102B6000121D22F007000022094D403840F8225083
:102B7000521C102AFAD301620021416281624FF097
:102B8000807200F13005C263C16285E81A0070BD31
:102B9000EFBEADDE10B5FDF71BFB044A1178491CF2
:102BA0001170BDE81040FDF717BB00005800002071
:102BB00010B5FDF70DFB044A1178491E1170BDE8F0
:102BC0001040FDF709BB00005800002010B5006858
:102BD000143800F06FFD002010BD00002DE9F04119
:102BE000064614460D46084600F09EFD05F1140702
:102BF000B4B1012C18D134680EE000BF95F835103F
:102C000094F82120A4F11400914204D239461430E2
:102C100000F033F802E02468B442EFD1B44203D1AB
:102C20003946304600F029F80020BDE8F081000068
:102C30000FB47F2110B503AB0448029A00F0DEFE0A
:102C40000248FFF773FE10BC5DF814FB140300206C
:102C50000268516002680A6001604860704702685B
:102C6000516002680A600160486070470268516004
:102C700002680A60016048607047426811604268FB
:102C80004A604160086070470246002100E0491C2C
:102C900000689042FBD108467047D0E900124A60B4
:102CA000D0E900121160406000607047D0E9001266
:102CB0004A60D0E900121160406000607047D0E9BE
:102CC00000124A60D0E90012116040600060704755
:102CD0002DE9F047002807D0374CC01C20F0030630
:102CE000E068864202D90020BDE8F0870C2E00D2B1
:102CF0000C264FF0FF31314800F0F4FAD4F808C048
:102D00002168E768ACEB0100BA1B4FE00D186B8837
:102D1000E3BB6B681B1A0C3BB34246D36A6806F1EF
:102D20001803121A0C3A4FF001094FF4F55A9A425F
:102D30002DD383190C33CA184FF00008A2F800A055
:102D4000A2F80280D5F80480C2E901806B60A5F882
:102D5000029050680C37B84202D001F1080283504B
:102D6000206930440C3020616269824200D2606187
:102D7000A5F800A0654512D1A06842887AB16268C2
:102D800090420CD040680844A060F6E70DE0A5F83A
:102D9000029068686A1A801A22691044E3E70748BB
:102DA00000F07CFA05F10C009EE768688242ADD81D
:102DB000024800F073FA96E75C00002094030020BC
:102DC00070B50D4601461646052000F050F9040086
:102DD00014D0667204F11400A0616061A8B220846E
:102DE0008000FFF775FFE06148B100206084A08497
:102DF000E08404F12800E062A062204670BD204615
:102E000000F05DF9002070BD2DE9F74F8A460446B9
:102E10004FF0000900F06CFC0546FDF7D9F90746B4
:102E2000608C02996FF0010808434FF0000637D11B
:102E30003846FDF7D1F94046BDE8FE8F2E63029873
:102E400000284FD0627A294604F11400FFF7C6FE2D
:102E5000029800280CDD00F0C9FC814605F1440011
:102E600002AA0021834600F023FD584600F06CFDC5
:102E70003846FDF7B1F900F087F9286B0028DBD15F
:102E8000FDF7A6F907460298002809DD00F0AEFC20
:102E90000299A0EB0909B1EB0900029000D5029656
:102EA000608C0028CAD0E18CE06950F82100CAF893
:102EB0000000E08C401C80B2E084218C884200D36A
:102EC000E684608C08B1401E6084A16A04F1280089
:102ED00081420ED0FFF77AFE3846FDF77DF900F00B
:102EE00053F909E03846FDF777F94046C5F83080D8
:102EF000A2E73846FDF770F900209DE70022AFF306
:102F000000802DE9F74F8A4604464FF0000800F094
:102F1000EFFB0546FDF75CF90746608C218C002627
:102F20006FF00209884234D10298002857D030E06F
:102F30002E630298E8B3627A294604F12800FFF76D
:102F40004DFE029800280CDD00F050FC804605F193
:102F5000440002AA0021834600F0AAFC584600F073
:102F6000F3FC3846FDF738F900F00EF9286B00281D
:102F700039D1FDF72DF907460298002809DD00F048
:102F800035FC0299A0EB0808B1EB0800029000D5CF
:102F90000296608C218C8842CAD0A28CE16941F8EB
:102FA00022A0A08C401C80B2A084218C884202D335
:102FB00000E014E0A684608C4FF6FF7188420ED2C8
:102FC000401C6084616904F1140081420DD0FFF758
:102FD000FDFD3846FDF700F900F0D6F808E0384668
:102FE000FDF7FAF84846BDE8FE8F3846FDF7F4F8DD
:102FF0000020F8E710B50346994211D28C189C4284
:103000000ED9811804E000BF14F8013D01F8013D1C
:10301000521EF9D210BD00BF11F8014B03F8014B4D
:10302000521EF9D210BD000010B50346CCB2042ADE
:103030001AD3810718D1194644EA042343EA03430B
:1030400006E008C1103A08C141F8083B41F8043CC9
:10305000102AF6D201E008C1121F042AFBD20B4647
:1030600002E000BF03F8014B521EFBD210BD2DE958
:10307000F0410F46064600F045F80546C068FFF7E8
:1030800027FE040019D00021EA68FFF7CDFF267261
:103090000020607208223946204600F0BBF9FDF797
:1030A00097F8064604F10C01281DFFF7D1FD3046C4
:1030B000FDF792F82046BDE8F0810020FBE770B5EF
:1030C000044600202072FDF783F8054604F10C0049
:1030D000FFF7E3FD2846FDF77FF82046BDE8704086
:1030E000FFF772BB70B5044600202072FDF770F840
:1030F000054604F10C00FFF7D0FD2846BDE87040FE
:10310000FDF76AB8074A002102EB01131B788342DE
:1031100002D102EB01107047491C0529F4DB0020A5
:1031200070470000740000202DE9F0410446164667
:103130000D460846FFF7E6FF0746FFF71BFB381D65
:10314000796800E009688142FCD1FFF721FB45F076
:103150008000207208223146204600F05BF9FDF71E
:1031600037F8054604F10C01381DFFF771FD2846BC
:10317000BDE8F041FDF730B8007A000601D5012026
:10318000704700207047000070B5FDF721F8114C22
:1031900005466088B0B9A068FDF73CFE0E49401EA8
:1031A000626851F83010143991420BD020700B48EE
:1031B0006160007801F11C01002802F11C0006D0BA
:1031C000FDF70DF82846BDE87040FDF705B8FDF79E
:1031D00006F8F7E7C4000020B403002058000020E0
:1031E00010B50446FCF7F4FF024694F834000E498B
:1031F00020F00F00401C84F8340094F8350001EBF7
:10320000C00104F114004B6818604B68A36148606A
:1032100006486161A16B836819438160BDE8104075
:103220001046FCF7D9BF0000B4030020C400002002
:1032300010B50446FCF7CCFF04F11401D1E90023DA
:103240005360D1E900231A60A161616194F83520CF
:10325000074951F8323001EBC2018B4204D10549D4
:10326000A36B8A689A438A60BDE81040FCF7B4BF3C
:10327000B4030020C40000202DE9F04116460A46A0
:103280001F4605460221FFF74FFF05F11404AC610C
:103290006C61AE836F720020BDE8F08170B50446AA
:1032A000FCF796FF0546616904F11400814207D0DE
:1032B000FFF78CFC2846FCF78FFFFFF765FF09E05E
:1032C000A08B4FF6FF71884206D2401CA08328468F
:1032D000FCF782FF002070BD2846FCF77DFF6FF0F1
:1032E000020070BD73B50546FCF772FF0646A88B59
:1032F00028B1401EA8833046FCF76EFF21E00198FC
:1033000008B300F0F5F90446002020636A7A2146EC
:1033100005F11400FFF762FC0198002809DD04F1B3
:10332000440001AA0021054600F0C2FA284600F038
:103330000BFB3046FCF750FFFFF726FF206B002801
:1033400000D100207CBD3046FCF746FF6FF0010045
:103350007CBD000008B509A0FFF76AFC0AA0FFF7D2
:1033600067FC12A0009005230122032112A0FFF7A1
:103370005FFCBDE8084018A0FFF75ABC0A205C209B
:103380007C202F0A000000002D205254202D2020E8
:10339000202020546872656164204F7065726174EA
:1033A000696E672053797374656D0A0041756720F3
:1033B0002039203230323200202F207C205C202027
:1033C00020202025642E25642E2564206275696CDA
:1033D000642025730A0000002032303036202D2072
:1033E0003230323020436F707972696768742062BE
:1033F000792072742D746872656164207465616DE2
:103400000A000000014600E0491C0A78002AFBD1AE
:10341000081A704710B5002A07D0034611F8014B6F
:1034200003F8014B2CB1521EF8D110BD03F8011B5B
:1034300000E00021521EF9D110BD00000A46C11C57
:1034400010B522F0030321F00301182B20D9A3F1BA
:1034500018048C421CD3114C581A18382160E060B3
:103460004FF4F5520A8000230C30C1E901034B8070
:103470004B68194461600A8001224A804860886074
:10348000002307A10848FFF7F7FE2068A06010BDE1
:103490000146BDE8104005A0FFF7CABB5C00002054
:1034A0006865617000000000940300206D656D2068
:1034B000696E69742C206572726F7220626567692B
:1034C0006E206164647265737320307825782C20D7
:1034D000616E6420656E642061646472657373203C
:1034E000307825780A00000010B50A4900230A4CFC
:1034F0004B80184604EBC002401C5260126020282A
:10350000F8DB1F20087003484B600C308B60406074
:10351000006010BDC4000020B403002010B5074CAB
:10352000A068FDF777FC0649401E51F830001438BA
:103530006060BDE810401C30FCF77FBEC400002076
:10354000B40300200148406000607047DC000020A8
:1035500070472DE9FF478946DDE90C768246014632
:103560001D4690460120FFF782FD041E0DD028461F
:10357000FFF7AEFB60B103968DE8A10043464A46D3
:1035800051462046FDF7B6FC204604B0BDE8F08762
:103590002046FFF794FD0020F7E7000070B51448BF
:1035A0000468FCF715FE05462046FDF7F4FC2046AE
:1035B000FFF73EFE042084F8340004F1440000F0DC
:1035C0009BF92046FFF7D8FD01280CD004F1140127
:1035D0000848FFF744FB00BFFFF7D6FD2846BDE8CB
:1035E0007040FCF7F9BD2046FFF77CFDF4E70000D2
:1035F000C8000020D000002000F002F8FCE7000026
:103600002DE97040FCF7E4FD05460F480168814252
:1036100014D00168A1F11404D1E900024260D1E99B
:1036200000021060496009604869FFF7CDF8204644
:10363000FFF745FD2846FCF7CFFDE3E72846BDE848
:103640007040FCF7C9BD0000D00000201FB520234A
:1036500008481F22D9008DE80F000023064A07A161
:10366000783800F00FF804B00248BDE81040783810
:1036700000F044B814020020F93500087469646C45
:10368000650000002DE9FF5F92460EAA0C4692E805
:10369000E0010A46994683460121FFF745FD8DE882
:1036A000E0014B46524621465846FDF723FC04B044
:1036B000BDE8F09F70B5044690F8340000F00F00AC
:1036C000022802D04FF0FF3070BDFCF781FD0546A7
:1036D00004F11400FFF7EAFA04F1440000F076F96F
:1036E0002846FCF779FD2046FFF77AFD002070BDE3
:1036F0000148006870470000C800002010B590F82D
:103700003610012280F835108A400221826380F849
:103710003410FFF7CFFF0348006808B1FFF734FD0E
:10372000002010BDC800002070B5044690F8340099
:1037300000F00F00012802D04FF0FF3070BDFCF701
:1037400047FD05462046FFF773FD94F8340020F04E
:103750000F00801C84F8340004F1440000F036F9B6
:103760002846FCF739FD002070BD10B504466FF007
:103770000100206304F11400FFF798FA2046FFF7D8
:103780002FFDBDE81040FFF7FFBC000070B5FCF74F
:103790001FFD06461348046894F8340000F00F003B
:1037A000012819D1D4E90501884215D004F114008B
:1037B0000546FFF77BFA94F835000B4901EBC00092
:1037C00041680D6041686960456028603046FCF7DB
:1037D00003FDFFF7D9FC02E03046FCF7FDFC0020BA
:1037E00070BD0000C8000020B4030020014800683C
:1037F0007047000054000020094810B50168491CBA
:103800000160FFF775FF016C491E016403D1C16BB4
:103810000164FFF7BBFFBDE8104000F003B80000F3
:10382000540000202DE9FC41CDF804D0CDF800D0A3
:10383000FFF7DCFF0646FCF7CBFC07461B4D2DE0EF
:1038400060696FF00041301A143C884229D220464A
:10385000FDF79EFB607A810702D420F001006072C0
:1038600004F1140188466846FFF700FAD4E907100E
:103870008847FFF7BBFF06460098694688420DD08F
:103880004046FFF71CFA607A810707D5C10705D0CB
:1038900020F001006072204600F056F82C68AC421F
:1038A000CED13846FCF798FCBDE8FC81DC00002056
:1038B00070B515460E460446FCF78AFC052E17D255
:1038C000DFE806F00503080C1100616A0FE02968C3
:1038D00061620DE0617A21F0020102E0617A41F05B
:1038E0000201617204E0617AC90700D001212960F8
:1038F000FCF772FC002070BD70B50446FCF768FC54
:1039000005462046FDF744FB607A20F00100607216
:103910002846FCF761FC2046FFF7E4FB002070BD61
:103920002DE9F8439046DDE908450A461F4606465C
:103930000A21FFF7F9FB23463A46414630460095F7
:10394000FDF718FBBDE8F8832DE9F8430446FCF7C2
:103950003FFC80462046FDF71BFB607A20F001000B
:103960006072FFF743FF616A174A4318A3620020A1
:10397000009202EBC002694656686FF000475DF89E
:1039800020200AE01268A2EBC0056D699D4202D0BA
:10399000ED1ABD4203D341F82020B242F2D10A48C9
:1039A000001F0168491C016004F114010098FFF731
:1039B0005DF9607A40F0010060724046FCF70CFC53
:1039C0000020BDE8F8830000DC00002070B504464C
:1039D000407AC0070ED0FCF7FBFB05462046FDF7FA
:1039E000D7FA607A20F0010060722846FCF7F4FBF9
:1039F000002070BD4FF0FF3070BD00002DE9FF4F7B
:103A00008946044600EB090783B080464FF0FF3A31
:103A10004FF0200BA74202D25746C8F1FF390BE105
:103A2000252803D0BC4200D2207080E000260599F2
:103A3000491C059108782D2811D02B2812D0202858
:103A400013D0232814D0302815D00A785546303AA0
:103A50000A2A13D205A800F049F905461AE046F0F3
:103A60001006E4E746F00406E1E746F00806DEE764
:103A700046F02006DBE746F00106D8E72A2809D100
:103A80000698491C059120C80690002D02DA6D4267
:103A900046F010060598D44601782E2918D1401C0E
:103AA00005900178A1F130020A2A04D205A800F09D
:103AB0001DF9844607E02A2908D1401C0590069884
:103AC00050F804CB0690BCF1000F01DA4FF0000C67
:103AD000059A00201178682901D06C2902D1521C66
:103AE0000846059211780A236F2974D00CDC6329EB
:103AF0001FD004DC25296FD058290DD184E064291A
:103B000001D0692908D183E0702966D073292CD0AF
:103B100075297FD0782979D0BC4201D22520207028
:103B20000598641C0178E9B3BC4200D22170641C82
:103B30007FE0F00608D458466D1E002D04DDBC421F
:103B400000D22070641CF7E70698BC4210F8041BF2
:103B5000069000D22170584602E0BC4200D220708C
:103B6000641C6D1E002DF8DC63E0069802C8069008
:103B700001B941A1002000E0401CA84202D00A5C2B
:103B8000002AF9D1BCF1000F02DD604500DD60467E
:103B9000F2060BD45A462B466D1E834206DDBC420C
:103BA00002D200E054E02270641CF4E7002206E038
:103BB000BC4201D20B782370491C521C641C824207
:103BC000F6DB5A4629466D1E814232DDBC4200D2E8
:103BD0002270641CF6E715E010E0681C02D108258D
:103BE00046F00106CDE9005C06980296102304C851
:103BF00006903946204619E00CE007E0BC4296D218
:103C0000252011E7082305E046F04006102301E0D7
:103C100046F002066C2801D068281CD0069804C81B
:103C20000690CDE9005C394620460296FEF7CAFCB4
:103C300004460598401C05900598007800287FF4FC
:103C4000EFAEB9F1000F11D0BC420DD220700DE0E3
:103C5000401E0590EDE7069830F8041B06908AB2E6
:103C6000B007DED512B2DCE707F8010C07B0A4EB11
:103C70000800BDE8F08F0000284E554C4C2900008C
:103C800000207047002070470020704700207047D8
:103C900010B5FCF79DFAFEF701FEFFF75BFBFFF79F
:103CA00051FCFFF721FCFEF725FDFFF751FCFFF764
:103CB000CDFCFFF733FC002010BD000070B50546B9
:103CC00004680BE0A4F1140106A0FEF7B1FF206820
:103CD000A84202D004A0FEF7ABFF2468AC42F1D1A9
:103CE00070BD0000257300002F00000010B50146D4
:103CF00000206FF02F0307E0541C0C60127800EBDB
:103D0000800003EB400010440A681478303C0A2C11
:103D1000F2D310BD2DE9F84F05461E469146080125
:103D2000DDF828B0DDF830A000F09EFA01460DB3B2
:103D3000664800BF00F0B6F9044600F075FA87B295
:103D4000384600F091FA214600F0ECFA042100F028
:103D50009AFB00F069FA4FF6FF7101EA0711084477
:103D60005B4C87B24FF0030835B1012D44D0022DD2
:103D70007AD15DE05748DDE7A06940F48040A0615A
:103D8000B9F1000F03D0B9F1010F11D02BE0022ED1
:103D900029D10823002201210920CDF80080FDF758
:103DA00057FB0823012200210A20CDF8008018E0EB
:103DB000032E18D1A06940F00100A0614648416877
:103DC00041F0040141600823002201211620CDF8B2
:103DD0000080FDF73DFB0823012200211720CDF8CC
:103DE0000080FDF735FBE06840F48040E060E0686B
:103DF00020F48040E06037E0E06940F40030E061AA
:103E00000823002201210220CDF80080FDF720FBCD
:103E10000823012200210320CDF80080FDF718FBC4
:103E2000206940F400302061206920F400301AE05D
:103E3000E06940F48020E0610823002201211A207B
:103E4000CDF80080FDF704FB0823012200211B2090
:103E5000CDF80080FDF7FCFA206940F48020206155
:103E6000206920F4802020611C4850F825108F60C4
:103E700050F82510CB6843EA0B32CA6050F8251081
:103E80000B690B9A43EA02320A61BAF1000F08D0BB
:103E900050F82510CA684FF4007404EB4A231A4303
:103EA000CA6050F82510CA6842F22C031A43CA604F
:103EB00050F8250001684906FCD50848001F032179
:103EC000425DBDE8F84F0846FEF72ABB4054094C56
:103ED000001002404054894C0000014020000020A6
:103EE000044A52F82030596052F82000016849060F
:103EF000FCD570472000002010B518A0FEF798FEF2
:103F00001A4C21881AA0FEF793FE2088C00702D021
:103F10001DA0FEF78DFE2088800702D51DA0FEF7AC
:103F200087FE2088400702D51DA0FEF781FE20886D
:103F3000000702D51CA0FEF77BFE2088C00502D535
:103F40001BA0FEF775FE2088800502D51BA0FEF79A
:103F50006FFEBDE8104004A0FEF76ABE757361678E
:103F600065206661756C743A0A0000002AED00E075
:103F70005343425F434653525F554653523A30785B
:103F80002530325820000000554E444546494E53D6
:103F900054522000494E56535441544520000000CD
:103FA000494E5650432000004E4F43502000000021
:103FB000554E414C49474E45442000004449564225
:103FC000595A45524F20000010B5FFF7C3F90020A1
:103FD00010BD000090EA010F48BF81F0004100F1E0
:103FE000B281421A3CBF801A89184FEAD0524FF072
:103FF0007F4C1CEA410FA2EBD15318BF9CEA026F21
:1040000000F03B804FF0004C4CEA00204CEA0121CC
:1040100021FA03FC10EB0C0C1ED202F1FF325FEA16
:104020001C2040EBC25038BF70471CF07F0F4FEA96
:10403000400C18BFBCF17F4F38BF7047C3F120035D
:10404000994008BF20F00100BCF17F4F38BF704796
:10405000A0F1C04000F061B94FEA3C00000A40EB1B
:10406000C25028BF1CF0FF0F4FEA400CE6D018BF2B
:10407000BCF17F4F38BF7047EAE79CEA026F05D07A
:1040800010EA5C0F08BF00F00040704710B500F068
:10409000FEF800BF64FBBE3E014800F0C2B900BF9D
:1040A0000000C07F4FF47F0C1CEAD0121EBF1CEA38
:1040B000D11392EA0C0F93EA0C0F00F0858090EA7E
:1040C000010F48BF42F4807240F4000C41F400003C
:1040D0002CF07F4120F07F4000B58142A2EB03022B
:1040E0000FF2081CACEB504EC0F100009EF800E04F
:1040F0004FEA4E0E00FB0EFC38BF49004FEA2C1C65
:1041000002F5FA020CFB0EF34FEACE1E4FEA112C19
:104110004FEAC1210EEB635E42EB22420EFB0CFC28
:104120004FEA1C5300FB03114FEA112C4FEA0131F7
:104130000EFB0CFC4FEADC4C00FB0C11C14228BF0B
:1041400009184CEB03335DF804EB10EB410143EB32
:10415000C250B2F57C0F38BF704729D512F0F00F6E
:104160001CBF00F1C04000F0004070470081828316
:104170008485868788898B8C8D8E8F919293959676
:1041800097999A9C9D9FA0A2A3A5A7A8AAACAEB000
:10419000B2B3B5B7B9BCBEC0C2C5C7C9CCCED1D405
:1041A000D7D9DCDFE2E6E9ECF0F3F7FAFE00000035
:1041B0004FEA400C0CF1807CBCF17E4F28BF704769
:1041C000B0F1C04000F0A9B890EA010F0CEAD11399
:1041D00048BF42F48072624538BF634507D213F48A
:1041E0007F0F16D080EA010000F00040704710B544
:1041F00000F04DF8097EFC3E00F005B880EA0100B1
:1042000000F00040704780EA010000F0004000F03C
:1042100084B812F47F0F04BF0248704780EA01009F
:1042200000F07BB80000C07FC10DD1F19E0206DB1B
:104230004FEA002343F0004323FA02F070470042A4
:1042400007D54FEA4001B1F1FE4F02D24FF0000016
:10425000704710B500F01BF8499224800020704789
:104260006FEA200070470000B0FA80F310FA03F202
:10427000C3F19D030AD0D90501EB1220530638BFC4
:10428000704700F1010008BF20F0010070470EF1F7
:10429000020E2EF0030E5EF8044B244204D44FEAC3
:1042A0004102B2F17F4F11D84FEA4003B3F17F4F83
:1042B0000CD80ED14FEAD07CB2F17F4F0CEB4C0CF6
:1042C0000CF1020C08BF4CEBD17C04E04FF0080C61
:1042D00001E04FEAD17C0CEB4C0324FA03F404F028
:1042E0000704B4F1040C06D20EEB840CBDE81040B8
:1042F0004CF0010C6047DFE80CF0070802024FF0B9
:104300000040A0F5800010BD0846420018BFD2F161
:10431000807288BF00F0004010BDFF2141EAD050FC
:10432000C005704780F0004090EA010F7FF559AE5C
:1043300081F0004100F007B890EA010F48BF81F01A
:1043400000413FF54EAE421A04D882F00042A0EB85
:10435000020011444FEAD0524FF07F4C1CEA410F4B
:10436000A2EBD15318BF9CEA026F4AD04FF0004C29
:104370004CEA00204CEA012121FA03FCB0EB0C0CC2
:104380000FD412F0FE0F36D05FEA4C001DD500129C
:1043900040EBC25038BF70471CF03F0F18BF70474A
:1043A0000BE0A2F101025FEA1C2040EBC25038BFD3
:1043B00070471CF07F0F18BF7047C3F1200399406E
:1043C00014BF401E20F00100704780084FEA1223FE
:1043D00008BF7047B0FA80FCA2EB0C02CCF1280CAD
:1043E00060FA0CF093EA122F04BF00EBC250704742
:1043F0004FEAC3707047130A5FEADC1008BF7047CA
:10440000F6E79CEA026F04D010EA5C0F08BF0020B8
:10441000704710B5FFF73BFF40DFF63E81F00040EC
:1044200070470CF00F03092B08BF082000F05180E3
:104430000A2B0BD0082B18BF704708BF1CF0400F89
:104440000AD04FF000004FF0000170471CF0400F01
:1044500018BF4FF0004070471CF0100F08D020F03C
:10446000704300F07F4242EAD3014FEA4370704745
:1044700000F0604021F07F4242EA000201F07F40FC
:1044800040EA727070474FF0FF0212EAD0521CBF30
:1044900092F0FF038B42C2BFD14200EBC150704784
:1044A000002A0AD0002B0BD0002900F00040A4BF46
:1044B00040F0FE4040F40000704700F000407047BC
:1044C00043024FF00B0C18BF4CF0806C7FF4E4AD4E
:1044D00070471CF4801F11D01CF4E02F03D06FEA4A
:1044E000CC31490070474FF04050EFF3008222F08A
:1044F000704242EA000282F3008870474FF00000E9
:1045000070470000000000000000010203040607DD
:104510000809000001000200010003000100020080
:10452000010004000100020001000300010002007C
:10453000010005000100020001000300010002006B
:10454000010004000100020001000300010002005C
:10455000010006000100020001000300010002004A
:10456000010004000100020001000300010002003C
:10457000010005000100020001000300010002002B
:10458000010004000100020001000300010002001C
:104590000100070001000200010003000100020009
:1045A00001000400010002000100030001000200FC
:1045B00001000500010002000100030001000200EB
:1045C00001000400010002000100030001000200DC
:1045D00001000600010002000100030001000200CA
:1045E00001000400010002000100030001000200BC
:1045F00001000500010002000100030001000200AB
:10460000010004000100020001000300010002009B
:104610000100303132333435363738396162636402
:1046200065660030313233343536373839414243EC
:1046300044454600252D2A2E732070726920207370
:104640007461747573202020202020737020202036
:104650002020737461636B2073697A65206D6178C3
:104660002075736564206C656674207469636B20C3
:10467000206572726F720A0068656C6C6F007361FE
:10468000792068656C6C6F20776F726C640076655A
:104690007273696F6E0073686F772052542D54687F
:1046A000726561642076657273696F6E20696E66EB
:1046B0006F726D6174696F6E005F5F636D645F76CA
:1046C000657273696F6E0073686F772052542D5452
:1046D00068726561642076657273696F6E20696EB9
:1046E000666F726D6174696F6E006C6973745F746C
:1046F0006872656164006C697374207468726561C6
:1047000064005F5F636D645F6C6973745F7468728B
:10471000656164006C69737420746872656164001B
:104720006C6973745F73656D006C69737420736575
:104730006D6170686F726520696E2073797374653E
:104740006D005F5F636D645F6C6973745F73656D4B
:10475000006C6973742073656D6170686F72652099
:10476000696E2073797374656D006C6973745F6D25
:1047700061696C626F78006C697374206D61696C3B
:1047800020626F7820696E2073797374656D005FA5
:104790005F636D645F6C6973745F6D61696C626F98
:1047A00078006C697374206D61696C20626F782089
:1047B000696E2073797374656D006C6973745F6DD5
:1047C00073677175657565006C697374206D6573C9
:1047D0007361676520717565756520696E207379F1
:1047E0007374656D005F5F636D645F6C6973745FA4
:1047F0006D73677175657565006C697374206D659F
:10480000737361676520717565756520696E2073C6
:10481000797374656D006C6973745F74696D65722A
:10482000006C6973742074696D657220696E207301
:10483000797374656D005F5F636D645F6C69737439
:104840005F74696D6572006C6973742074696D655D
:104850007220696E2073797374656D006C6973746E
:10486000006C69737420616C6C2073796D626F6C7D
:1048700020696E2073797374656D005F5F636D648A
:104880005F68656C700052542D54687265616420D5
:104890007368656C6C2068656C702E005F5F636D7B
:1048A000645F7073004C697374207468726561642E
:1048B0007320696E207468652073797374656D2E3A
:1048C000005F5F636D645F667265650053686F7754
:1048D00020746865206D656D6F72792075736167EE
:1048E0006520696E207468652073797374656D2E18
:1048F000006C6973745F6D656D006C697374206D15
:10490000656D6F727920757361676520696E666F7A
:10491000726D6174696F6E008D3C0008853C000803
:10492000FB070008813C000831110008893C0008A1
:10493000784600087E460008B51500088E46000837
:1049400096460008C93F0008B9460008C746000857
:10495000C93F0008EA460008F6460008B91A0008F0
:104960000247000814470008B91A00082047000849
:10497000294700089D1900084247000851470008D0
:104980009D1900086A47000877470008C516000807
:104990008F470008A2470008C5160008BA4700085C
:1049A000C847000875180008E5470008F9470008DF
:1049B000751800081648000821480008711C0008F6
:1049C0003648000847480008711C00085C48000889
:1049D00061480008D51500087B4800088648000893
:1049E000B12300089C480008A5480008A71000084B
:1049F000C1480008CC4800089D100008F148000894
:104A0000FA48000809180008284A00080000002099
:104A1000E800000028010008104B0008E800002012
:104A200030460000440100080024F40000000000AB
:104A30000000000000080140000C0140001001408F
:104A400000140140252627000038014000440040A2
:104A500000480040000000000000000000000000CE
:104A60000000000000000000000000000000000046
:104A70000000000000000000000000000000000036
:104A80000000000000000000000000000000000026
:104A90000000000000000000000000000100000015
:104AA000780000207800002078000000020000005C
:104AB0008800002088000020200000000500000081
:104AC0009800002098000020300000000600000040
:104AD000A8000020A80000203C0000000A00000000
:104AE000B8000020B80000202C00000000000000EA
:104AF00000000000000000000000000000000000B6
:104B000000000000000000000000000000000000A5
:04000005080000ED02
:00000001FF
